:060000000A128A11FC2F18
:100F800083160313870183120313870108000A12D3
:100F90008A11C0270A128A110A128A11D5270A1249
:100FA0008A11CC2F0A128A110028F301F401730868
:100FB0008312031387001A30F2005E30F1006E30A6
:100FC000F000F00BE12FF10BE12FF20BE12F00000D
:100FD0000130F3070318F40A0030F4077408803A6C
:100FE000FF0080307F02031DF72F0A307302031CBD
:100FF000FA2FFB2FD72F080083010A128A11C72F5F
:02400E007A3FF7
:00000001FF
